:100000000C943C000C944E000C944E000C944E004A
:100010000C944E000C944E000C944E000C944E0028
:100020000C944E000C944E000C944E000C944E0018
:100030000C944E000C944E000C944E000C944E0008
:100040000C944E000C944E000C944E000C944E00F8
:100050000C944E000C944E000C944E000C944E00E8
:100060000C944E000C944E000C944E000C944E00D8
:100070000C944E000C944E0011241FBECFEFCDBF48
:10008000DFE3DEBF28E3A0E0B8E301C01D92A432A5
:10009000B207E1F70E9472000C949A000C940000E1
:1000A000FF920F931F93CF93DF93EC012197892B3E
:1000B00069F000E214E00F2EF0E7FF2EF02D0E9411
:1000C0007D00F801F58286832197C8F7DF91CF91F3
:1000D0001F910F91FF900895E0E2F4E08081806726
:1000E000808308950E946C0080E30E948E0080E56A
:1000F00090E00E9495007894FFCFE09103388091C2
:100100000238E81748F481E08E0F80930338F0E05E
:10011000EC5FF74C808108958FEF0895880FE0EA37
:10012000F8E0848781EE818708958093003890936A
:0801300001380895F894FFCF97
:00000001FF
