:100000000C943F000C9410050C9410050C941005F2
:100010000C9410050C9410050C9410050C9410050C
:100020000C9410050C9410050C9410050C941005FC
:100030000C9410050C9410050C941D030C941005E1
:100040000C9410050C9410050C9410050C941005DC
:100050000C9410050C9410050C9410050C941005CC
:100060000C9410050C9410050C9410050C941005BC
:100070000C9410050C94100538003865800011248C
:100080001FBECFEFCDBFDFE3DEBFE8E7F0E040E02B
:1000900017C0B591A59135912591059107FD0CC02B
:1000A00095918591EF01F92FE82F05900D92A217F8
:1000B000B307D9F7FE0104C01D92A217B307E1F7F9
:1000C000ED37F40731F70E946C030C94A804F89400
:0200D000FFCF60
:1000D2001F93CF93DF93009709F4A8C0EC01E88146
:1000E200F981138516FF4FC0FC01E65BFF4F80814B
:1000F200882361F0108232960190F081E02D3097D2
:1001020029F0DE01AC5BBF4F8C91099510FF30C026
:10011200FE01EC5BFF4F8081811103C088810E9448
:100122009104FE01EC5BFF4F108231961082E88150
:10013200F9818585FE01ED5BFF4F808311FF11C0C0
:100142003B960190F081E02D309709F463C0099548
:10015200FE01EC5BFF4F8081882309F45DC083E0E0
:1001620062C081E0FE01E65BFF4F808383E05BC0FB
:1001720088810E94CD04FE01EC5BFF4F1082319614
:10018200108282E050C011230CF048C0039611FF88
:100192002CC02A81122341F088E08A83FE01EC5BA5
:1001A200FF4F108282E03FC0DE01AA5BBF4F2C915D
:1001B2002F5F2C9328E12A8311972C9111973C9160
:1001C200231768F4DC01A20FB11D8C918587FE0113
:1001D200EB5BFF4F80818F5F808383E024C0FE0151
:1001E200EC5BFF4F108282E01EC03585FE01EC5BA6
:1001F200FF4F20812032A0F4FC01E20FF11D308379
:10020200FE01EC5BFF4F80818F5F8083803251F073
:1002120083E009C086E007C086E005C080E003C035
:1002220080E001C086E0E881F9818287DF91CF9189
:040232001F9108957B
:1002360010C00E94DB0458F00E94D40440F029F458
:100246005F3F29F00C94FB0451110C94E3040C94C9
:100256000D050E948F0368F39923B1F3552391F39B
:10026600951B550BBB27AA2762177307840738F01F
:100276009F5F5F4F220F331F441FAA1FA9F335D07C
:100286000E2E3AF0E0E832D091505040E695001C30
:10029600CAF72BD0FE2F29D0660F771F881FBB1FEA
:1002A600261737074807AB07B0E809F0BB0B802DC8
:1002B600BF01FF2793585F4F3AF09E3F510578F0F4
:1002C6000C94FB040C94E3045F3FE4F3983ED4F3F0
:1002D600869577956795B795F7959F5FC9F7880FC8
:1002E600911D9695879597F90895E1E0660F771F1A
:1002F600881FBB1F621773078407BA0720F0621BAB
:0E030600730B840BBA0BEE1F88F7E095089579
:100314000FC00E94D40438F00E94DB0420F095231F
:1003240011F00C94FB040C940D0511240C94E304BB
:100334000E948F0370F3959FC1F3950F50E0551FF2
:10034400629FF001729FBB27F00DB11D639FAA2726
:10035400F00DB11DAA1F649F6627B00DA11D661F75
:10036400829F2227B00DA11D621F739FB00DA11D96
:10037400621F839FA00D611D221F749F3327A00D50
:10038400611D231F849F600D211D822F762F6A2FEC
:1003940011249F5750409AF0F1F088234AF0EE0F51
:1003A400FF1FBB1F661F771F881F91505040A9F77E
:1003B4009E3F510580F00C94FB040C94E3045F3FD2
:1003C400E4F3983ED4F3869577956795B795F795BA
:1003D400E7959F5FC1F7FE2B880F911D9695879532
:0403E40097F90895E8
:1003E800E89409C097FB3EF49095809570956195C7
:1003F8007F4F8F4F9F4F9923A9F0F92F96E9BB277D
:100408009395F695879577956795B795F111F8CFF8
:10041800FAF4BB0F11F460FF1BC06F5F7F4F8F4F63
:100428009F4F16C0882311F096E911C0772321F059
:100438009EE8872F762F05C0662371F096E8862FF1
:1004480070E060E02AF09A95660F771F881FDAF748
:0A045800880F9695879597F908958F
:10046200CF93DF93CDB7DEB780E294E020E234E0B1
:10047200F90120812067FC01208380E294E020E2E0
:1004820034E0F90124812067FC0124830000DF911C
:10049200CF910895CF93DF930F92CDB7DEB78983C3
:1004A20080E294E020E234E0F90124812067FC013B
:1004B200248380E294E020E234E0F9012481322FA7
:1004C200298120952323FC01248300000F90DF91D2
:0404D200CF91089529
:1004D600CF93DF93EC0169817A8180E090E00E94FE
:1004E600F40124E533E74BE457E40E9405059B013C
:1004F600AC018881811105C06B817C818D819E81D3
:1005060004C06F81788589859A850E94090520E057
:1005160030E040E05FE30E9409056E877F87888BA5
:0E052600998BCE010E940504DF91CF910895BC
:100534000E94970388F09F5798F0B92F9927B751D5
:10054400B0F0E1F0660F771F881F991F1AF0BA9573
:10055400C9F714C0B13091F00E94E204B1E00895EB
:100564000C94E204672F782F8827B85F39F0B93FDD
:10057400CCF3869577956795B395D9F73EF4909526
:0E0584008095709561957F4F8F4F9F4F089522
:10059200FF920F931F93CF93DF93DC01A85BBF4FB2
:1005A200FC01E75BFF4F5C913081352B3130B1F0BC
:1005B200F22E142F062FEC010E940105FE01E75BCB
:1005C200FF4F81E0808388E08A83E881F981402FB0
:1005D200440F412B4487F68681EE8187DF91CF91CC
:0805E2001F910F91FF90089595
:1005EA00CF92DF92EF92FF920F931F93CF93DF93F5
:1005FA006C017A01452B91F0062F172FC0E0D0E04D
:10060A00F80161918F01C6010E943604882329F0FE
:10061A002196EC16FD06A1F701C07E018E2DDF9111
:10062A00CF911F910F91FF90EF90DF90CF90089597
:10063A001F920F920FB60F9211242F933F934F934D
:10064A005F936F937F938F939F93AF93BF93EF9330
:10065A00FF9380916238909163380E946900FF91FC
:10066A00EF91BF91AF919F918F917F916F915F9120
:10067A004F913F912F910F900FBE0F901F90189599
:10068A00CF93DF93EC01E0E4F4E085818860858311
:10069A008BE08A95F1F700008681886086838085E1
:1006AA0082FFFDCF0E94C504E0E4F4E0808582FD6C
:1006BA00FDCF0E94F5048091200A9091210A898336
:0E06CA009A83CE010E946B02DF91CF910895BA
:1006D8000E94B30480E40E944B0260EA78E080E064
:1006E80098E30E94BD0420E040E062E380E098E3E4
:1006F8000E94C9026FE174E080E098E30E94E90477
:100708006FEC73E080E098E30E94EF04789480E255
:060718000E944B02FFCF1E
:10071E0057FD9058440F551F59F05F3F71F04795A4
:10072E00880F97FB991F61F09F3F79F08795089589
:10073E00121613061406551FF2CF4695F1DF08C0A8
:10074E00161617061806991FF1CF869571056105C5
:04075E00089408955E
:100762001F93CF93DF93EC01162F0E945B040E942C
:100772009D0480E09CEFA5E0B7E48B839C83AD836E
:10078200BE8380E098E8A0E1B8E48F839887A987C8
:0C079200BA871883DF91CF911F91089562
:10079E00CF93DF9300D0CDB7DEB7E0E5F8E39485D5
:1007AE00858599838A8342E050E0BE016F5F7F4F5B
:1007BE0080E098E30E94F50280E20E944B020F90C7
:0807CE000F90DF91CF91089517
:1007D600AC014D5F5F4FFC01EB5BFF4F2081319712
:1007E6003081231760F4FA01E20FF11D3081FC011C
:1007F600EB5BFF4F2F5F2083832F90E008958FEFF1
:040806009FEF0895C3
:10080A00CF93DF93EC016E857F85888999890E9451
:10081A009A026C877D879B01369527953695279591
:10082A00ABE7B4E10E946A04969587958B87DF91BE
:04083A00CF910895BD
:10083E008130A1F40DC080E098E30E94EB03803577
:10084E0039F480E10E944B0280E598E30E94450353
:0E085E0080E098E30E948504892B69F70895D5
:10086C00FC01EC5BFF4F2081203260F4FC01E20FB5
:10087C00F11D6383FC01EC5BFF4F80818F5F8083F4
:08088C0081E0089580E0089569
:10089400092E0394000C11F4882352F0BB0F40F48A
:1008A400BF2B11F460FF04C06F5F7F4F8F4F9F4FCA
:0208B4000895A5
:1008B600E0E4F4E080818860808380818B7F8083A0
:0E08C60081898860818B82898860828B089589
:1008D400A29FB001B39FC001A39F700D811D11247D
:0E08E400911DB29F700D811D1124911D08956C
:1008F20088ED20E830E084BF2093600021E130E001
:0809020084BF209361000895F9
:10090A00FC01EC5BFF4F208130E031968081A90128
:08091A00481B5109CA010895B0
:1009220080916438811107C0E0E5F0E08081809316
:08093200643881708083089590
:10093A00E0E0FAE08081808310A211A28FEF9FEF9E
:06094A0086A397A30895A7
:10095000EC010E9415050E941405CE010E941605A7
:06096000CE010E94120509
:100966000E94790460E080E598E30E94B1030E944A
:0409760031020895AD
:10097A00FC01608371838093623890936338089591
:10098A00E0E0FAE010A211A28081816080830895DC
:0E099A00809164388093500010926438089564
:0E09A80000240A94161617061806090608956C
:0E09B60000240A94121613061406050608956E
:0E09C400E894BB2766277727CB0197F90895A3
:0C09D200845B9F4FFC01608371830895DB
:0C09DE00825B9F4FFC01608371830895D1
:0C09EA00E0E0FAE080818E7F80830895B9
:0C09F60097F99F6780E870E060E00895CA
:080A020083E0809326040895AF
:080A0A000E941B010C944A0438
:080A12000E948A010C944A04C1
:060A1A009FEF80EC08953F
:040A20000C94000032
:040A24000E946700C5
:020A280008952F
:020A2A0008952D
:020A2C0008952B
:00000001FF
