:100000000C943C000C944E000C944E000C944E004A
:100010000C944E000C944E000C944E000C944E0028
:100020000C944E000C944E000C944E000C944E0018
:100030000C944E000C944E000C94B3020C944E00A1
:100040000C944E000C944E000C944E000C944E00F8
:100050000C944E000C944E000C944E000C944E00E8
:100060000C944E000C944E000C944E000C944E00D8
:100070000C944E000C944E0011241FBECFEFCDBF48
:10008000DFE3DEBF28E3A0E0B8E301C01D92A335A3
:10009000B207E1F70E9477000C94FD020C94000077
:1000A00083E0809326040895E0E2F4E08081806795
:1000B00080838581806785830895E0E2F4E09581FF
:1000C0009067958386830895CF93C62F682F81E02C
:1000D00098E30E9450016C2F81E098E30E94D901BF
:1000E00061E081E098E30E94C901CF9108950E94E8
:1000F000540060EA78E081E098E30E94EC0081E03F
:1001000098E30E94380180E40E945D0060E480E38F
:100110000E94640025E186E195E0215080409040F6
:10012000E1F780E20E945D0025E186E195E0215043
:1001300080409040E1F780E10E945D0060E180E353
:100140000E94640025E186E195E0215080409040C6
:10015000E1F7D9CF9B01AC01203C87E2380789E069
:1001600048075105A0F065ED7CED82E390E00E9428
:10017000DB0256954795379527952550310933234E
:100180003CF12F3F310509F02CF5822F08952038DE
:100190008AE1380786E04807510568F065ED7CED97
:1001A00082E390E00E94DB025695479537952795AC
:1001B00025503109E4CF65ED7CED82E390E00E94AB
:1001C000DB02569547953795279525503109D7CFAE
:1001D00080E008958FEF0895FC0160837183809320
:1001E0005138909352380895CF92DF92EF92FF9258
:1001F000CF93DF93483E23E052076105710570F10C
:10020000FC01E85BFF4F2081213011F081E027C025
:100210006A017B01FC01C081D181CB01BA010E943E
:10022000AA009B81891711F19B811B828E83F1E8C3
:10023000CF16FAE1DF06F6E0EF06F10458F0888108
:10024000826088839B8380E090FF09C081E08D837A
:1002500080E005C088818D7F8883F4CF81E0DF91C5
:10026000CF91FF90EF90DF90CF90089580E0F7CF8F
:10027000CF93DF93EC010E945000FE01E85BFF4F3B
:1002800081E08083E881F9818383858340EA56E8B1
:1002900061E070E0CE010E94F400DF91CF910895FB
:1002A000FC01E85BFF4F2081222349F03597660F60
:1002B0006083319610828B5B9F4FFC011082089502
:1002C000CF92DF92EF92FF920F93CF93DF937B0158
:1002D0006A01DC01ED91FC91838180FF40C0EB015C
:1002E000A881B98185E09DE070E02E7F16C085E091
:1002F0005230D1F184E05130B9F581E135C036FF9B
:100300000CC034FD1BC01097E9F0E60189916E0125
:1003100080871197726085E09DE03581532F53707F
:1003200001F1019721F333FD1EC05330B1F3711178
:10033000E6CF278385E09DE071E0EFCF71FF25C018
:10034000109729F5E701888199818A1B9B0B888387
:100350009983011102C080E010C080E00CC080E1F0
:100360000CC080E10AC082E1E701288139812A1BA3
:100370003B0B2883398393E09483DF91CF910F91D6
:10038000FF90EF90DF90CF90089582E0EDCF83E073
:10039000EBCF0F93062FFC01ED5BFF4FAC014D5FE0
:1003A0005F4FBC016C5B7F4F20810E9460010F9109
:1003B0000895FC01EC5BFF4FE081E03260F4E80F50
:1003C000F92FF11D6383FC01EC5BFF4F80818F5F90
:1003D000808381E0089580E0089580910038811144
:1003E00007C0E0E5F0E08081809300388170808371
:1003F000089580910038809350001092003808953D
:100400001F93CF93DF93009709F45CC0EC01E88160
:10041000F981138516FF50C0FC01E65BFF4F808118
:10042000882361F0108232960190F081E02D3097A0
:1004300029F0DE01AC5BBF4F8C91099510FF31C0F4
:10044000FE01EC5BFF4F8081882301F1FE01EC5B34
:10045000FF4F108231961082E881F9818585FE0177
:10046000ED5BFF4F808311FF15C03B960190F0813B
:10047000E02D309709F46FC00995FE01EC5BFF4F4A
:100480008081882309F469C083E019C088810E94B3
:10049000ED01DCCF81E0FE01E65BFF4F808383E06E
:1004A0000EC088810E94F901FE01EC5BFF4F1082B3
:1004B0003196108282E003C080E011233CF0E88195
:1004C000F9818287DF91CF911F910895CE01039624
:1004D00011FF2CC02A81122341F088E08A83FE019B
:1004E000EC5BFF4F108282E0EACFDE01AA5BBF4FD8
:1004F0002C912F5F2C9328E12A8311972C9111972F
:100500003C91231768F4820F911DDC018C91858743
:10051000FE01EB5BFF4F80818F5F808383E0CFCF55
:10052000FE01EC5BFF4F108282E0C9CF2585FE0102
:10053000EC5BFF4FE081E03290F4E80FF92FF11D02
:100540002083FE01EC5BFF4F80818F5F80838032D0
:1005500041F083E0B4CF86E0B2CF86E0B0CF80E058
:10056000AECF86E0ACCF1F920F920FB60F92112440
:100570002F933F934F935F936F937F938F939F93AB
:10058000AF93BF93EF93FF9380915138909152387E
:100590000E940002FF91EF91BF91AF919F918F91C7
:1005A0007F916F915F914F913F912F910F900FBE6F
:1005B0000F901F901895A1E21A2EAA1BBB1BFD01DC
:1005C0000DC0AA1FBB1FEE1FFF1FA217B307E40732
:1005D000F50720F0A21BB30BE40BF50B661F771F8A
:1005E000881F991F1A9469F760957095809590956A
:0E05F0009B01AC01BD01CF010895F894FFCF2F
:00000001FF
