:100000000C943F000C9422020C9422020C942202C5
:100010000C9422020C9422020C9422020C942202D0
:100020000C9422020C9422020C9422020C942202C0
:100030000C9422020C9422020C9447010C9422028C
:100040000C9422020C9422020C9422020C942202A0
:100050000C9422020C9422020C9422020C94220290
:100060000C9422020C9422020C9422020C94220280
:100070000C9422020C942202380038538000112480
:100080001FBECFEFCDBFDFE3DEBFE8E7F0E040E02B
:1000900017C0B591A59135912591059107FD0CC02B
:1000A00095918591EF01F92FE82F05900D92A217F8
:1000B000B307D9F7FE0104C01D92A217B307E1F7F9
:1000C000ED37F40731F70E946F010C94E901F894C1
:0200D000FFCF60
:1000D2001F93CF93DF93009709F4A8C0EC01E88146
:1000E200F981138516FF4FC0FC01E65BFF4F80814B
:1000F200882361F0108232960190F081E02D3097D2
:1001020029F0DE01AC5BBF4F8C91099510FF30C026
:10011200FE01EC5BFF4F8081811103C088810E9448
:10012200DD01FE01EC5BFF4F108231961082E88107
:10013200F9818585FE01ED5BFF4F808311FF11C0C0
:100142003B960190F081E02D309709F463C0099548
:10015200FE01EC5BFF4F8081882309F45DC083E0E0
:1001620062C081E0FE01E65BFF4F808383E05BC0FB
:1001720088810E940502FE01EC5BFF4F10823196DE
:10018200108282E050C011230CF048C0039611FF88
:100192002CC02A81122341F088E08A83FE01EC5BA5
:1001A200FF4F108282E03FC0DE01AA5BBF4F2C915D
:1001B2002F5F2C9328E12A8311972C9111973C9160
:1001C200231768F4DC01A20FB11D8C918587FE0113
:1001D200EB5BFF4F80818F5F808383E024C0FE0151
:1001E200EC5BFF4F108282E01EC03585FE01EC5BA6
:1001F200FF4F20812032A0F4FC01E20FF11D308379
:10020200FE01EC5BFF4F80818F5F8083803251F073
:1002120083E009C086E007C086E005C080E003C035
:1002220080E001C086E0E881F9818287DF91CF9189
:040232001F9108957B
:10023600FF920F931F93CF93DF93DC01A85BBF4F11
:10024600FC01E75BFF4F5C913081352B3130B1F01B
:10025600F22E142F062FEC010E941E02FE01E75B10
:10026600FF4F81E0808388E08A83E881F981402F0F
:10027600440F412B4487F68681EE8187DF91CF912B
:080286001F910F91FF900895F4
:10028E001F920F920FB60F9211242F933F934F93FD
:10029E005F936F937F938F939F93AF93BF93EF93E0
:1002AE00FF9380915038909151380E946900FF91D0
:1002BE00EF91BF91AF919F918F917F916F915F91D0
:1002CE004F913F912F910F900FBE0F901F90189549
:1002DE000E94F40160EA78E080E098E30E94FD015C
:1002EE0020E040E060E480E098E30E941B0166EAB3
:1002FE0071E080E098E30E9412026CE072E080E010
:0A030E0098E30E9418027894FFCFD4
:10031800AC014D5F5F4FFC01EB5BFF4F20813197D4
:100328003081231760F4FA01E20FF11D3081FC01DE
:10033800EB5BFF4F2F5F2083832F90E008958FEFB3
:040348009FEF089586
:10034C001F93CF93DF93C0E2D4E010E706C080E0A8
:10035C0098E30E948C011D838E8380E098E30E94B9
:0E036C00D101892BA1F7DF91CF911F91089548
:10037A00FC01EC5BFF4F2081203260F4FC01E20FAC
:10038A00F11D6383FC01EC5BFF4F80818F5F8083EB
:08039A0081E0089580E0089560
:1003A200FC01EC5BFF4F208130E031968081A90196
:0803B200481B5109CA0108951E
:1003BA0080915238811107C0E0E5F0E08081809396
:0803CA00523881708083089510
:1003D200EC010E9427020E942602CE010E942802FE
:0603E200CE010E9424027E
:1003E800E0E2F4E08081806780838581806785838F
:0203F800089566
:1003FA00FC0160837183809350389093513808953B
:0E040A0080915238809350001092523808951D
:0C04180060E180E098E30E94BD010895BF
:0C042400845B9F4FFC016083718308958E
:0C043000825B9F4FFC0160837183089584
:08043C0083E08093260408957B
:040444000C94000014
:040448000E946700A7
:02044C00089511
:02044E0008950F
:0204500008950D
:00000001FF
