:100000000C943F000C94AE010C94AE010C94A4012E
:100010000C94AE010C94AE010C94AE010C94AE01A4
:100020000C94AE010C94AE010C94AE010C94AE0194
:100030000C94AE010C94AE010C94BE000C94AE0175
:100040000C94AE010C94AE010C94AE010C94AE0174
:100050000C94AE010C94AE010C94AE010C94AE0164
:100060000C94AE010C94AE010C94AE010C94AE0154
:100070000C94AE010C94AE013800380580001124B8
:100080001FBECFEFCDBFDFE3DEBFE8E7F0E040E02B
:1000900017C0B591A59135912591059107FD0CC02B
:1000A00095918591EF01F92FE82F05900D92A217F8
:1000B000B307D9F7FE0104C01D92A217B307E1F7F9
:1000C000ED37F40731F70E9469000C947901F89438
:0200D000FFCF60
:1000D2000E949701E0E2F4E080E78583868324E5CD
:1000E20048E554E1215040405040E1F700C000C0D3
:1000F2000E94320161E08CE40E9484018091043804
:100102008130B1F0C0E2D4E000E710E60D831E8337
:100112000E948E01809304386AE28CE29AE0615078
:1001220080409040E1F7000080910438813071F7FF
:100132000E94AA017894E0E2F4E080E730E420E152
:1001420090E28583368345E156E165E041505040B7
:100152006040E1F78583268345E156E165E0415041
:1001620050406040E1F78583968345E156E165E0C2
:0A017200415050406040E1F7E4CF37
:10017C001F920F920FB60F9211242F933F934F9310
:10018C005F936F937F938F939F93AF93BF93EF93F3
:10019C00FF938091AB0886FF0BC0E0EAF8E080E4A7
:1001AC008387838580FF04C081E0838783E0828717
:1001BC008091AB088823C4F48091AB0881FF08C000
:1001CC00E0910038F091013809950E94430107C075
:1001DC000E946E01E0910238F09103380995E0EA33
:1001EC00F8E0838580688387FF91EF91BF91AF9191
:1001FC009F918F917F916F915F914F913F912F9133
:0A020C000F900FBE0F901F90189581
:1002160081E080934701E0E4F1E081818111FDCF27
:10022600E0E4F1E08081808380E094E08287938738
:1002360081818111FDCFE0E4F1E0838181608383D8
:1002460082818160828381818111FDCFE0E4F1E0CA
:0E02560080818160808381818111FDCF0895B8
:10026400E0EAF8E08CE08683838183608383848181
:100274008860848381E085838381806C8383789420
:020284000895DB
:100286008093AD08E0EAF8E083858823ECF7809157
:10029600AB0884FF05C0E0EAF8E0828582608287C9
:0202A6000895B9
:1002A80084E08093A408E0EAF8E085818823ECF7ED
:0E02B800E0EAF8E08481836084838085089505
:1002C60088ED90E084BF9093600021E130E084BF28
:0602D60020936100089571
:1002DC00E0EAF8E083858823ECF7E0EAF8E084E0D4
:0602EC008287858508955C
:1002F200EC010E94B3010E94B201CE010E94B4013E
:06030200CE010E94B001D3
:10030800880F682B6093A708E0EAF8E08581807C75
:04031800E9F3089568
:10031C00E0E2F4E080E7858380E186830E9454016B
:02032C00089532
:0E032E000E9463010E940B010E949E0108952F
:0C033C00E0E2F4E0808180678083089597
:0C0348008F9381E0809343018F91189502
:0803540083E08093A4080895E2
:04035C000C940000FD
:040360000E94670090
:020364000895FA
:020366000895F8
:020368000895F6
:00000001FF
