:100000000C943F000C949C040C949C040C9464028B
:100010000C949C040C949C040C949C040C949C04E0
:100020000C949C040C949C040C949C040C949C04D0
:100030000C949C040C949C040C9402030C949C045B
:100040000C949C040C949C040C949C040C949C04B0
:100050000C949C040C949C040C949C040C949C04A0
:100060000C949C040C949C040C949C040C949C0490
:100070000C949C040C949C04380038558000112486
:100080001FBECFEFCDBFDFE3DEBFE8E7F0E040E02B
:1000900017C0B591A59135912591059107FD0CC02B
:1000A00095918591EF01F92FE82F05900D92A217F8
:1000B000B307D9F7FE0104C01D92A217B307E1F7F9
:1000C000ED37F40731F70E949E020C946804F8940F
:0200D000FFCF60
:1000D2001F93CF93DF93009709F4A8C0EC01E88146
:1000E200F981138516FF4FC0FC01E65BFF4F80814B
:1000F200882361F0108232960190F081E02D3097D2
:1001020029F0DE01AC5BBF4F8C91099510FF30C026
:10011200FE01EC5BFF4F8081811103C088810E9448
:100122005104FE01EC5BFF4F108231961082E88190
:10013200F9818585FE01ED5BFF4F808311FF11C0C0
:100142003B960190F081E02D309709F463C0099548
:10015200FE01EC5BFF4F8081882309F45DC083E0E0
:1001620062C081E0FE01E65BFF4F808383E05BC0FB
:1001720088810E948B04FE01EC5BFF4F1082319656
:10018200108282E050C011230CF048C0039611FF88
:100192002CC02A81122341F088E08A83FE01EC5BA5
:1001A200FF4F108282E03FC0DE01AA5BBF4F2C915D
:1001B2002F5F2C9328E12A8311972C9111973C9160
:1001C200231768F4DC01A20FB11D8C918587FE0113
:1001D200EB5BFF4F80818F5F808383E024C0FE0151
:1001E200EC5BFF4F108282E01EC03585FE01EC5BA6
:1001F200FF4F20812032A0F4FC01E20FF11D308379
:10020200FE01EC5BFF4F80818F5F8083803251F073
:1002120083E009C086E007C086E005C080E003C035
:1002220080E001C086E0E881F9818287DF91CF9189
:040232001F9108957B
:10023600EF92FF920F93CF93DF937A01DC01ED915A
:10024600FC91838180FF38C0DB01CC91D0E0A5E032
:10025600BDE050E02E7F9581392F337079F11197EB
:1002660031F4323069F1313069F184E032C0892FDE
:10027600887093FD29C0333071F3511105C027836F
:10028600A5E0BDE051E0E7CF96FFE5CF94FF05C0BE
:1002960051FF1CC02097E1F422C0209701F1D7013D
:1002A6008D917D01808721975260A5E0BDE0D3CF77
:1002B60080E093E094831AC080E118C080E116C004
:1002C60085E007C081E105C082E103C082E001C08C
:1002D60083E0DB019C919C1BDB019C93EACFDB0155
:1002E6009C919C1BDB019C930111E2CFDF91CF9186
:0802F6000F91FF90EF900895B5
:1002FE000F931F93CF93DF93DC01ED91FC91DB0104
:10030E00CD91DC91A5E0BDE030E012E02160858169
:10031E00982F937079F1119731F4923069F19130F1
:10032E0069F184E02EC083FD2BC0933081F331112F
:10033E0005C02783A5E0BDE031E0E9CF86FF04C00C
:10034E0083E0848382E01DC088230CF78085DA0168
:10035E008D93AD01219721F01483A5E0BDE0D7CF99
:10036E00002321F087E0848380E00BC084E0848347
:10037E0080E007C080E105C085E003C081E101C0D7
:10038E0082E1FB01208131812C1B3D0B20833183C7
:0A039E00DF91CF911F910F91089598
:1003A8009B01AC01203C87E2380789E048075105EA
:1003B80080F065ED7CED82E390E00E945103DA0164
:1003C800C901B695A795979587959C012550310940
:1003D80026C020388AE1380786E04807510580F0B2
:1003E80065ED7CED82E390E00E945103DA01C901DA
:1003F800B695A795979587959C01255031090FC00B
:1004080065ED7CED82E390E00E945103DA01C901B9
:10041800B695A795979587959C0125503109332363
:1004280034F02F3F310509F024F4822F089580E03D
:0604380008958FEF089506
:10043E00CF92DF92EF92FF92CF93DF93483E23E06D
:10044E0052076105710568F1FC01E85BFF4F2081E1
:10045E00213049F56A017B01FC01C081D181CB01BC
:10046E00BA010E94D4019B818917F9F09B811B82EE
:10047E008E8381E8C8168AE1D80686E0E806F10484
:10048E0020F088818260888303C088818D7F888375
:10049E009B83892F817090FF09C081E08D8380E05E
:1004AE0005C081E003C081E001C080E0DF91CF9103
:0A04BE00FF90EF90DF90CF900895BB
:1004C8001F920F920FB60F9211241F932F933F93F1
:1004D8004F935F936F937F938F939F93AF93BF9344
:1004E800CF93DF93EF93FF9380E10E949204C0E4DF
:1004F800D1E011E01B830E94D7028093523880E23A
:100508000E94920481E00E9492031B83FF91EF9165
:10051800DF91CF91BF91AF919F918F917F916F9113
:100528005F914F913F912F911F910F900FBE0F90A8
:040538001F90189563
:10053C000E94840480E40E94920424E588E594E1FE
:10054C00215080409040E1F700C000C060EA78E0A4
:10055C0080E098E30E947C0480E098E30E94FB0317
:10056C000BC080E40E9492042AE28CE29AE02150B3
:10057C0080409040E1F700000E947303813089F7BE
:10058C0024E588E594E1215080409040E1F700C0DB
:10059C0000C080E20E9492048FEF0E94C9037894FD
:0205AC00FFCF7F
:1005AE0060E380E098E30E94370460E580E098E322
:1005BE000E94130461E080E098E30E9427042AE081
:1005CE008BE892E0215080409040E1F700C021E09E
:1005DE0041E060E380E098E30E94E20380E098E36C
:1005EE000E944504892B29F080E098E30E94AF0316
:0605FE00089580E008955D
:100604001F920F920FB60F9211242F933F934F9383
:100614005F936F937F938F939F93AF93BF93EF9366
:10062400FF9380915038909151380E946900FF9156
:10063400EF91BF91AF919F918F917F916F915F9156
:100644004F913F912F910F900FBE0F901F901895CF
:1006540081E080934701E0E4F1E081818111FDCFE5
:10066400E0E4F1E08081808380E094E082879387F6
:1006740081818111FDCFE0E4F1E083818160838396
:1006840082818160828381818111FDCFE0E4F1E088
:0E06940080818160808381818111FDCF089576
:1006A200A1E21A2EAA1BBB1BFD010DC0AA1FBB1F74
:1006B200EE1FFF1FA217B307E407F50720F0A21BE6
:1006C200B30BE40BF50B661F771F881F991F1A9453
:1006D20069F760957095809590959B01AC01BD017D
:0406E200CF010895A7
:1006E60080E10E9492042AE684E091E02150804055
:1006F6009040E1F700C021E041E060E480E098E34B
:100706000E94E20380E098E30E944504892B29F0C9
:0E07160080E098E30E94AF03089580E008950C
:100724008130D1F4809152388233B0F40E94730343
:1007340080935338882381F08B3030F08A50809333
:1007440053380E94C9030895813019F40E94C903E3
:0A075400089580E00E94C903089593
:10075E00AC014D5F5F4FFC01EB5BFF4F208131978A
:10076E003081231760F4FA01E20FF11D3081FC0194
:10077E00EB5BFF4F2F5F2083832F90E008958FEF69
:04078E009FEF08953C
:10079200CF93C82F80E10E94920460E480E098E346
:1007A2000E9437046C2F80E098E30E94130461E0FA
:1007B20080E098E30E94270480E20E949204CF9195
:0207C200089598
:1007C4000F93022F403208F040E2262F220FFC0143
:1007D400ED5BFF4F2083BC016C5B7F4FFB014083CB
:1007E40031961082AC014D5F5F4F0E947F010F91E3
:0207F400089566
:1007F600CF93DF93EC010E949804FE01E85BFF4F64
:1008060081E08083E881F9818383858340EA56E825
:1008160061E070E0CE010E941F02DF91CF91089542
:10082600FC01EC5BFF4F2081203260F4FC01E20FFB
:10083600F11D6383FC01EC5BFF4F80818F5F80833A
:0808460081E0089580E00895AF
:10084E000F93062FFC01ED5BFF4FAC014D5F5F4F29
:10085E00BC016C5B7F4F20810E941B010F9108959C
:10086E00FC01E85BFF4F2081222339F03597660F9C
:0C087E006083319610823196108208953C
:10088A00FC01EC5BFF4F208130E031968081A901A9
:08089A00481B5109CA01089531
:1008A20080915438811107C0E0E5F0E080818093A7
:0808B200543881708083089521
:1008BA0088ED90E084BF9093600021E130E084BF2E
:0608CA0020936100089577
:1008D000EC010E94A1040E94A004CE010E94A20487
:0608E000CE010E949E04FF
:1008E600E0E2F4E08081806780838581806785838C
:0208F600089563
:1008F800FC01608371838093503890935138089538
:0E0908000E945D040E942A030E947304089559
:0E091600809154388093500010925438089508
:0C092400E0E2F4E090E7958386830895FC
:0809300083E080932604089582
:040938000C9400001B
:04093C000E946700AE
:02094000089518
:02094200089516
:02094400089514
:00000001FF
