:100000000C943F000C9434020C9434020C94B6000F
:100010000C9434020C9434020C9434020C94340288
:100020000C9434020C9434020C9434020C94340278
:100030000C9434020C9434020C9469000C94340235
:100040000C9434020C9434020C9434020C94340258
:100050000C9434020C9434020C9434020C94340248
:100060000C9434020C9434020C9434020C94340238
:100070000C9434020C9434023800380880001124A7
:100080001FBECFEFCDBFDFE3DEBFE8E7F0E040E02B
:1000900017C0B591A59135912591059107FD0CC02B
:1000A00095918591EF01F92FE82F05900D92A217F8
:1000B000B307D9F7FE0104C01D92A217B307E1F7F9
:1000C000ED37F40731F70E9459010C940802F894B7
:0200D000FFCF60
:1000D2001F920F920FB60F9211242F933F934F93BB
:1000E2005F936F937F938F939F93AF93BF93EF939E
:1000F200FF938091AB0886FF0BC0E0EAF8E080E452
:100102008387838580FF04C081E0838783E08287C1
:100112008091AB088823C4F48091AB0881FF08C0AA
:10012200E0910438F091053809950E94D20107C088
:100132000E94FD01E0910638F09107380995E0EA46
:10014200F8E0838580688387FF91EF91BF91AF913B
:100152009F918F917F916F915F914F913F912F91DD
:0A0162000F900FBE0F901F9018952C
:10016C001F920F920FB60F9211242F933F934F9320
:10017C005F936F937F938F939F93AF93BF93EF9303
:10018C00FF938091003890910138019799F480E7A2
:10019C000E942A0281E0809343010E943D019C0150
:1001AC00215031092336310540F461E070E00E94A2
:1001BC001D0103C081E080934301FF91EF91BF913A
:1001CC00AF919F918F917F916F915F914F913F91E3
:0C01DC002F910F900FBE0F901F901895F0
:1001E80081E080934701809141018111FCCFE0E4D7
:1001F800F1E08081808388E99AE382879387809100
:1002080041018111FCCFE0E4F1E0838181608383C7
:10021800828181608283809141018111FCCFE0E479
:10022800F1E0808181608083809141018111FCCF60
:02023800089527
:10023A0061307105E1F48091023890910338892B7D
:10024A00B1F00E949D0190E08093023890930338A8
:10025A0080910238909103380A97809302389093DC
:10026A00033880910238909103380E9487010895DB
:10027A00CF93DF938091003890910138019779F4F8
:10028A0061E070E089E090E00E9413020E94E301BD
:10029A00D82FC92F0E9430028D2F9C2F02C080E0D8
:0802AA0090E0DF91CF9108956F
:1002B2000E941D020E94C1018FEF0E94710181E024
:1002C20090E0809300389093013880E40E942A02E3
:1002D20025E186E195E0215080409040E1F7F5CF9D
:1002E200CF93C82F80E50E942A0260E070E08CE480
:1002F20090E00E9413028C2F90E00E94AF010E94B6
:0C030200300280E20E942A02CF91089590
:10030E00CF93C82F80E30E94710160E070E08CE40F
:10031E0090E00E9413028C2F90E00E94AF010E9489
:0C032E00300280E20E942A02CF91089564
:10033A00CF9380E10E942A0261E070E08CE490E0B1
:10034A000E9413020E94E301C82F0E9430028C2FE0
:04035A00CF910895A2
:10035E008093A808E0EAF8E0858186FFFDCF8091C2
:10036E00A5088C7031F0E0EAF8E088E0848381E043
:04037E0085830895D6
:10038200E0EAF8E08CE08683838183608383848162
:100392008860848381E085838381806C8383789401
:0203A2000895BC
:1003A4008093AD08E0EAF8E083858823ECF7809138
:1003B400AB0884FF05C0E0EAF8E0828582608287AA
:0203C40008959A
:1003C60084E08093A408E0EAF8E085818823ECF7CE
:0E03D600E0EAF8E084818360848380850895E6
:1003E40088ED90E084BF9093600021E130E084BF09
:0603F40020936100089552
:1003FA00E0EAF8E083858823ECF7E0EAF8E084E0B5
:06040A008287858508953C
:10041000EC010E9439020E943802CE010E943A0289
:06042000CE010E9436022D
:10042600880F682B6093A708E0EAF8E08581807C56
:04043600E9F3089549
:0E043A000E94F2010E94F4000E942402089524
:0C044800E0E2F4E080818067808308958A
:0C045400E0E2F4E090E7958386830895D1
:0804600083E08093A4080895D5
:040468000C940000F0
:04046C000E94670083
:020470000895ED
:020472000895EB
:020474000895E9
:00000001FF
