:100000000C943F000C9412020C9412020C94B60053
:100010000C9412020C9412020C9412020C94120210
:100020000C9412020C9412020C9412020C94120200
:100030000C9412020C9412020C9469000C9412029B
:100040000C9412020C9412020C9412020C941202E0
:100050000C9412020C9412020C9412020C941202D0
:100060000C9412020C9412020C9412020C941202C0
:100070000C9412020C9412023800380680001124ED
:100080001FBECFEFCDBFDFE3DEBFE8E7F0E040E02B
:1000900017C0B591A59135912591059107FD0CC02B
:1000A00095918591EF01F92FE82F05900D92A217F8
:1000B000B307D9F7FE0104C01D92A217B307E1F7F9
:1000C000ED37F40731F70E94F1000C94EE01F8943B
:0200D000FFCF60
:1000D2001F920F920FB60F9211242F933F934F93BB
:1000E2005F936F937F938F939F93AF93BF93EF939E
:1000F200FF938091AB0886FF0BC0E0EAF8E080E452
:100102008387838580FF04C081E0838783E08287C1
:100112008091AB088823C4F48091AB0881FF08C0AA
:10012200E0910038F091013809950E94B80107C0AA
:100132000E94E301E0910238F09103380995E0EA68
:10014200F8E0838580688387FF91EF91BF91AF913B
:100152009F918F917F916F915F914F913F912F91DD
:0A0162000F900FBE0F901F9018952C
:10016C001F920F920FB60F9211242F933F934F9320
:10017C005F936F937F938F939F93AF93BF93EF9303
:10018C00FF9380910438813091F4E0E2F4E080E751
:10019C008583868381E0809343010E9439019FEF20
:1001AC00980F933638F461E00E94810103C081E01E
:1001BC0080934301FF91EF91BF91AF919F918F91EC
:1001CC007F916F915F914F913F912F910F900FBE47
:0601DC000F901F90189522
:1001E2000E9409020E94A7018FEF0E941A01E0E219
:1001F200F4E080E730E420E190E28583368345E154
:1002020056E165E0415050406040E1F78583268326
:1002120045E156E165E0415050406040E1F7858399
:10022200968345E156E165E0415050406040E1F778
:02023200E4CF17
:100234000F931F93CF93DF93082FC0E2D4E010E70E
:100244001D8380E58E8360E070E08CE490E00E9482
:10025400F901802F90E00E9495010E940E021D83F7
:0E02640080E28E83DF91CF911F910F9108955C
:10027200CF93DF9380910438813079F461E070E0AC
:100282008CE390E00E94F9010E94C901D82FC92F86
:100292000E940E028D2F9C2F02C080E090E0DF9121
:0402A200CF9108955B
:1002A600CF93C82F80E30E941A0160E070E08CE4CF
:1002B60090E00E94F9018C2F90E00E9495010E9427
:1002C6000E02E0E2F4E080E7858380E28683CF9148
:0202D600089589
:1002D800CF93E0E2F4E080E7858380E1868361E004
:1002E80070E08CE490E00E94F9010E94C901C82FD7
:0A02F8000E940E028C2FCF91089592
:10030200613089F480910538882369F00E946C017C
:1003120080930538809105388A5080930538809102
:0803220005380E945301089503
:10032A008093A808E0EAF8E0858186FFFDCF8091F6
:10033A00A5088C7031F0E0EAF8E088E0848381E077
:04034A00858308950A
:10034E00E0EAF8E08CE08683838183608383848196
:10035E008860848381E085838381806C8383789435
:02036E000895F0
:100370008093AD08E0EAF8E083858823ECF780916C
:10038000AB0884FF05C0E0EAF8E0828582608287DE
:020390000895CE
:1003920084E08093A408E0EAF8E085818823ECF702
:0E03A200E0EAF8E0848183608483808508951A
:1003B00088ED90E084BF9093600021E130E084BF3D
:0603C00020936100089586
:1003C600E0EAF8E083858823ECF7E0EAF8E084E0E9
:0603D60082878585089571
:1003DC00EC010E9417020E941602CE010E94180224
:0603EC00CE010E94140284
:1003F200880F682B6093A708E0EAF8E08581807C8B
:04040200E9F308957D
:0C040600E0E2F4E08081806780830895CC
:0A0412000E94D8010E940302089521
:08041C0083E08093A408089519
:040424000C94000034
:040428000E946700C7
:02042C00089531
:02042E0008952F
:0204300008952D
:00000001FF
