:100000000C943C000C9459000C9459000C9474000E
:100010000C9459000C9459000C9459000C945900FC
:100020000C9459000C9459000C9459000C945900EC
:100030000C9459000C9459000C9459000C945900DC
:100040000C9459000C9459000C9459000C945900CC
:100050000C9459000C9459000C9459000C945900BC
:100060000C9459000C9459000C9459000C945900AC
:100070000C9459000C94590011241FBECFEFCDBF32
:10008000DFE3DEBF18E3A0E0B8E3E2EDF1E002C099
:1000900005900D92A430B107D9F728E3A4E0B8E3A6
:1000A00001C01D92A530B207E1F70E946E000C94CA
:1000B000E7000C94000010927800E0E4F1E0818108
:1000C00080FDFDCFE0E4F1E017828FEF9FEF8287A4
:1000D000938781E0828381E8808308950E94B40041
:1000E0000E945B007894FFCF1F920F920FB60F9281
:1000F00011242F933F934F935F936F937F938F932D
:100100009F93AF93BF93EF93FF9381E0809343015D
:1001100060E08FE60E94BF00813099F00E94E1000C
:10012000FF91EF91BF91AF919F918F917F916F91CF
:100130005F914F913F912F910F900FBE0F901F90A5
:100140001895E0910438F0E0E050F84C80810E946E
:10015000D600809104388F5F833018F010920438F5
:10016000DDCF80930438DACFE0EAF8E08CE08683D4
:10017000858181608583148283E083830895E0EA2A
:10018000F8E0958193709130E1F7E0EAF8E097812B
:10019000880F962B892B8783611106C0858186FF86
:1001A000FDCF858185FFFACF81E00895E0EAF8E090
:1001B0008087858186FD04C08581858186FFFCCF8F
:1001C0000895E0EAF8E08481836084830895F894D8
:0201D000FFCF5F
:0401D200FFEEDD005F
:00000001FF
