:100000000C9450000C9481020C9481020C94A60173
:100010000C9481020C9481020C946E010C94810268
:100020000C9481020C9481020C9481020C94810244
:100030000C9481020C9481020C94D5000C948102E2
:100040000C9481020C9481020C9481020C94810224
:100050000C9481020C9481020C9481020C94810214
:100060000C9481020C9481020C9481020C94810204
:100070000C9481020C948102880091009A00A300E4
:10008000AC00B500BE00C7003800380200051438C7
:1000900002380480380438060005163806380A800D
:1000A00011241FBECFEFCDBFDFE3DEBFE8E8F0E0F5
:1000B00040E017C0B591A59135912591059107FDB7
:1000C0000CC095918591EF01F92FE82F05900D92C5
:1000D000A217B307D9F7FE0104C01D92A217B307F8
:1000E000E1F7E03AF40731F70E9422010C9457023D
:0400F000F894FFCFB2
:1000F400E0E2F4E02581206225838830910508F050
:100104004CC0FC01E45CFF4F0C947B02E0E4F4E09F
:100114008681876086838581886085833EC0E0E42C
:10012400F4E086818360868385818C60858335C015
:10013400E0E4F4E086818B60868385818460858336
:100144002CC0E0E4F4E08681896086838581866042
:10015400858323C0E0E4F4E086818D608683858115
:10016400826085831AC0E0E4F4E086818C60868333
:1001740085818360858311C0E0E4F4E086818E602C
:10018400868385818160858308C0E0E4F4E086810C
:1001940086608683858189608583E0E2F4E08681D8
:0601A400806286830895CD
:1001AA001F920F920FB60F9211242F933F934F93E2
:1001BA005F936F937F938F939F93AF93BF93EF93C5
:1001CA00FF938091AB0886FF0BC0E0EAF8E080E479
:1001DA008387838580FF04C081E0838783E08287E9
:1001EA008091AB088823C4F48091AB0881FF08C0D2
:1001FA00E0910638F091073809950E94160207C067
:10020A000E944C02E0910838F09109380995E0EA19
:10021A00F8E0838580688387FF91EF91BF91AF9162
:10022A009F918F917F916F915F914F913F912F9104
:0A023A000F900FBE0F901F90189553
:1002440043E852E062ED71E08CE490E00E94050224
:10025400F8940E9474027894C0E0D0E020910438AD
:100264003091053880910238909103382817390766
:1002740081F10E94620280910038909101388130AE
:10028400910579F480910438909105388F3F910558
:10029400C9F0CE010E947A002197A2F4C7E0D0E011
:1002A40011C0029779F48091043890910538892B14
:1002B40049F0CE010E947A002196C830D10514F08D
:1002C400C0E0D0E080E792E00197F1F700C00000C1
:0802D400C5CF0E946C02C2CFED
:1002DC001F921FB61F9211248F939F93EF93FF933E
:1002EC008091090485FF11C08FEF90E08093043852
:1002FC009093053882E090E0809300389093013819
:10030C00E0E0F4E081858062818780910904882394
:10031C007CF4109204381092053881E090E08093C0
:10032C00003890930138E0E0F4E0818580688187A3
:10033C00FF91EF919F918F911F901FBE1F90189569
:10034C001F921FB61F9211248F939F9381E080936D
:10035C00430180910038909101388130910551F41E
:10036C0080910438909105380596809304389093C9
:10037C0005380CC08230910549F480910438909175
:10038C000538059780930438909305389F918F9189
:08039C001F901FBE1F90189571
:1003A40090E02091043830910538281739073CF43F
:1003B40021E030E0209300383093013806C022E079
:1003C40030E02093003830930138809302389093C2
:0403D400033808954D
:1003D800E0E4F4E080818F608083E0E0F4E08081F5
:1003E8008F7D808380818F77808385898A60858BE4
:1003F80087898A60878BE0E2F4E08081806280836D
:02040800089555
:10040A006093083870930938409306385093073838
:10041A00880FE0EAF8E084878185836E8187789483
:02042A00089533
:10042C008093AD08E0EAF8E083858823ECF78091AF
:10043C00AB0884FF05C0E0EAF8E082858260828721
:02044C00089511
:10044E00E0E4F1E081E08783108280E094E082872F
:0A045E0093878281816082830895F4
:1004680088ED20E830E084BF2093600021E130E08F
:0804780084BF20936100089588
:100480008091400180FF07C0E0E4F1E01086118612
:0804900080818E7F80830895B6
:10049800E0EAF8E083858823ECF7E0EAF8E084E016
:0604A8008287858508959E
:1004AE00EC010E9488020E948702CE010E948902FE
:0604BE00CE010E94850240
:1004C4008091400180FD05C0E0E4F1E0808181601D
:0404D4008083089584
:1004D800E0E4F4E086818F6086830E9440020895FC
:0E04E8000E9434020E9427020E94EC01089537
:0C04F600EE0FFF1F0590F491E02D09941B
:040502000C94000055
:0405060080E00895F4
:04050A000E947800D3
:02050E0008954E
:0205100008954C
:0205120008954A
:020514000200E3
:020516007D0066
:00000001FF
