:100000000C9453000C9401040C9401040C942702EA
:100010000C9401040C9401040C94E5010C9401046B
:100020000C9401040C9401040C9401040C9401043C
:100030000C9401040C9401040C94F0020C9401043F
:100040000C9401040C9401040C9401040C9401041C
:100050000C9401040C9401040C9401040C9401040C
:100060000C9401040C9401040C9401040C940104FC
:100070000C9401040C9401049D01A601AF01B80188
:10008000C101CA01D301DC0138003853803853382C
:100090005500081038553856803856385700081221
:1000A00038573858800011241FBECFEFCDBFDFE393
:1000B000DEBFE8E8F0E040E017C0B591A5913591CA
:1000C0002591059107FD0CC095918591EF01F92FC0
:1000D000E82F05900D92A217B307D9F7FE0104C0CF
:1000E0001D92A217B307E1F7E53AF40731F70E9432
:0A00F0002F010C94A303F894FFCF36
:1000FA001F93CF93DF93009709F4A8C0EC01E8811E
:10010A00F981138516FF4FC0FC01E65BFF4F808122
:10011A00882361F0108232960190F081E02D3097A9
:10012A0029F0DE01AC5BBF4F8C91099510FF30C0FE
:10013A00FE01EC5BFF4F8081811103C088810E9420
:10014A009703FE01EC5BFF4F108231961082E88123
:10015A00F9818585FE01ED5BFF4F808311FF11C098
:10016A003B960190F081E02D309709F463C0099520
:10017A00FE01EC5BFF4F8081882309F45DC083E0B8
:10018A0062C081E0FE01E65BFF4F808383E05BC0D3
:10019A0088810E94D803FE01EC5BFF4F10823196E2
:1001AA00108282E050C011230CF048C0039611FF60
:1001BA002CC02A81122341F088E08A83FE01EC5B7D
:1001CA00FF4F108282E03FC0DE01AA5BBF4F2C9135
:1001DA002F5F2C9328E12A8311972C9111973C9138
:1001EA00231768F4DC01A20FB11D8C918587FE01EB
:1001FA00EB5BFF4F80818F5F808383E024C0FE0129
:10020A00EC5BFF4F108282E01EC03585FE01EC5B7D
:10021A00FF4F20812032A0F4FC01E20FF11D308350
:10022A00FE01EC5BFF4F80818F5F8083803251F04B
:10023A0083E009C086E007C086E005C080E003C00D
:10024A0080E001C086E0E881F9818287DF91CF9161
:04025A001F91089553
:10025E000E94720360EA78E080E098E30E94C9038E
:10026E0020E040E060E480E098E30E949B0268E1B9
:10027E0073E080E098E30E94DF0361ED73E080E0BD
:10028E0098E30E94E5037894909156388091553802
:10029E009817A1F181E08093533880E10E947B0290
:1002AE0080915438813089F4909156389E3F69F090
:1002BE0020915538921749F082E598E30E948D01FE
:1002CE0082E598E30E94C00312C0823081F48091CF
:1002DE005638813061F090915538891741F082E59A
:1002EE0098E30E948D0182E598E30E94B70380E7B0
:1002FE0092E00197F1F700C00000C6CF109253387C
:0C030E0080E20E947B020E94F103BECF3F
:10031A00DC01EC918E2FEE0F990BAA0BBB0B8830E8
:10032A00910508F04CC0FC01E45CFF4F0C94F70304
:10033A00E0E4F4E08681876086838581886085832E
:10034A000895E0E4F4E086818360868385818C6089
:10035A0085830895E0E4F4E086818B608683858155
:10036A00846085830895E0E4F4E086818960868369
:10037A008581866085830895E0E4F4E086818D6056
:10038A0086838581826085830895E0E4F4E086812E
:10039A008C6086838581836085830895E0E4F4E038
:1003AA0086818E6086838581816085830895E0E4F5
:1003BA00F4E08681866086838581896085830895D5
:1003CA001F920F920FB60F9211248F93EF93FF9300
:1003DA008091090485FF16C08091080485FD0DC02F
:1003EA0010924801109249018FEF809356388EEF90
:1003FA008093553882E080935438E0E0F4E08185B8
:10040A0080628187809109048823A4F4809108047A
:10041A0088235CF0109248011092490110925638D4
:10042A0081E08093553880935438E0E0F4E0818588
:10043A0080688187FF91EF918F910F900FBE0F9087
:04044A001F90189552
:10044E001F920F920FB60F9211248F9381E080931B
:10045E00430180915338813089F480915438813032
:10046E0031F4809156388F5F8093563807C08230B2
:10047E0029F48091563881508093563880915638A1
:10048E00813031F48093553882E0809354380CC01B
:10049E008E3F51F480915538882331F08EEF809342
:1004AE00553881E0809354388F910F900FBE0F9086
:0404BE001F901895DE
:1004C200CF93DF93CDB7DEB780E294E020E234E051
:1004D200F90120812067FC01208380E294E020E280
:1004E20034E0F90124812067FC0124830000DF91BC
:1004F200CF910895CF93DF930F92CDB7DEB7898363
:1005020080E294E020E234E0F90124812067FC01DA
:10051200248380E294E020E234E0F9012481322F46
:10052200298120952323FC01248300000F90DF9171
:04053200CF910895C8
:10053600FF920F931F93CF93DF93DC01A85BBF4F0E
:10054600FC01E75BFF4F5C913081352B3130B1F018
:10055600F22E142F062FEC010E94FD03FE01E75B2D
:10056600FF4F81E0808388E08A83E881F981402F0C
:10057600440F412B4487F68681EE8187DF91CF9128
:080586001F910F91FF900895F1
:10058E0081E080934701809141018111FCCFE0E42D
:10059E00F1E08081808386E292E08287938780916A
:1005AE0041018111FCCFE0E4F1E08381816083831E
:1005BE00828181608283809141018111FCCFE0E4D0
:1005CE00F1E0808181608083809141018111FCCFB7
:0205DE0008957E
:1005E0001F920F920FB60F9211242F933F934F93A8
:1005F0005F936F937F938F939F93AF93BF93EF938B
:10060000FF9380915038909151380E947D00FF9166
:10061000EF91BF91AF919F918F917F916F915F917A
:100620004F913F912F910F900FBE0F901F901895F3
:10063000CF93C0E005C080E098E30E943503C82F47
:1006400080E098E30E948B03892BA9F780915638AC
:100650008C1720F481E08093543803C082E08093AB
:0A0660005438C0935538CF91089527
:10066A00AC014D5F5F4FFC01EB5BFF4F208131977F
:10067A003081231760F4FA01E20FF11D3081FC0189
:10068A00EB5BFF4F2F5F2083832F90E008958FEF5E
:04069A009FEF089531
:10069E00FC01EC5BFF4F2081203260F4FC01E20F85
:1006AE00F11D6383FC01EC5BFF4F80818F5F8083C4
:0806BE0081E0089580E0089539
:1006C600E0E0F4E080818F7D808380818F77808376
:0E06D60085898A60858B87898A60878B089565
:1006E4000E947F030E94C7020E94630382E598E38D
:0A06F4000E94AE030E946102089507
:1006FE0088ED20E830E084BF2093600021E130E0F7
:08070E0084BF209361000895EF
:10071600FC01EC5BFF4F208130E031968081A9011E
:08072600481B5109CA010895A6
:10072E0080915738811107C0E0E5F0E08081809319
:08073E00573881708083089593
:10074600EC010E9406040E940504CE010E940704E3
:06075600CE010E94030425
:10075C00CF93DF93EC010E94EB031882DF91CF91D2
:02076C000895EE
:10076E00FC0190819F5F983014F49083089510825D
:02077E000895DC
:10078000FC019081915012F09083089587E080835E
:020790000895CA
:10079200FC0160837183809350389093513808959F
:0E07A2006091563880E098E30E944F0308955E
:0E07B00080915738809350001092573808956A
:0C07BE00845B9F4FFC01608371830895F1
:0C07CA00825B9F4FFC01608371830895E7
:0C07D600E0E4F4E080818F6080830895EF
:0C07E200E0E4F4E086818F6086830895D7
:0C07EE00EE0FFF1F0590F491E02D099420
:0807FA0083E0809326040895BA
:040802000C94000052
:040806000E947B00D1
:02080A0008954F
:02080C0008954D
:02080E0008954B
:0108100001E6
:0108110002E4
:01081200FFE6
:00000001FF
