:100000000C944A000C94FC010C94FC010C947501B6
:100010000C94FC010C94FC010C943D010C94C50063
:100020000C94FC010C94FC010C94FC010C94FC015C
:100030000C94FC010C94FC010C94FC010C94FC014C
:100040000C94FC010C94FC010C94FC010C94FC013C
:100050000C94FC010C94FC010C94FC010C94FC012C
:100060000C94FC010C94FC010C94FC010C94FC011C
:100070000C94FC010C94FC017D0086008F0098001C
:10008000A100AA00B300BC00380038040004063800
:100090000438068011241FBECFEFCDBFDFE3DEBFE3
:1000A000E8E8F0E040E017C0B591A59135912591C1
:1000B000059107FD0CC095918591EF01F92FE82F6F
:1000C00005900D92A217B307D9F7FE0104C01D9247
:1000D000A217B307E1F7E439F40731F70E940301EF
:0800E0000C94D601F894FFCF47
:1000E8008830910508F04CC0FC01E45CFF4F0C948B
:1000F800F601E0E4F4E08681876086838581886084
:1001080085830895E0E4F4E08681836086838581B1
:100118008C6085830895E0E4F4E086818B608683B3
:100128008581846085830895E0E4F4E086818960B0
:1001380086838581866085830895E0E4F4E086817E
:100148008D6086838581826085830895E0E4F4E08C
:1001580086818C6086838581836085830895E0E449
:10016800F4E086818E608683858181608583089529
:10017800E0E4F4E0868186608683858189608583F2
:020188000895D8
:10018A001F920F920FB60F9211242F933F934F9302
:10019A005F936F937F938F939F93AF93BF93EF93E5
:1001AA00FF938091003890910138009749F40E949A
:1001BA00E10181E090E0809300389093013808C013
:1001CA00019731F40E94F001109200381092013820
:1001DA00E0E2F4E0818584608187FF91EF91BF912D
:1001EA00AF919F918F917F916F915F914F913F91C5
:0C01FA002F910F900FBE0F901F901895D2
:100206000E94E9017894C0E0D0E080910038909196
:10021600013881309105E9F78091023890910338D1
:100226008130910579F480910438909105388F3F9B
:100236009105C9F0CE010E9474002197A2F4C7E08F
:10024600D0E011C0029779F4809104389091053876
:10025600892B49F0CE010E9474002196C830D10541
:1002660014F0C0E0D0E080E792E00197F1F700C01B
:040276000000CBCFEA
:10027A001F921FB61F9211248F939F93EF93FF93A0
:10028A008091090485FF11C08FEF90E080930438B4
:10029A009093053882E090E0809302389093033877
:1002AA00E0E0F4E0818580628187809109048823F7
:1002BA007CF4109204381092053881E090E0809323
:1002CA00023890930338E0E0F4E081858068818702
:1002DA00FF91EF919F918F911F901FBE1F901895CC
:1002EA001F921FB61F9211248F939F9381E08093D0
:1002FA00430180910238909103388130910551F47D
:10030A00809104389091053805968093043890932B
:10031A0005380CC08230910549F4809104389091D7
:10032A000538059780930438909305389F918F91EB
:08033A001F901FBE1F901895D3
:10034200E0E4F4E080818F608083E0E0F4E080818B
:100352008F7D808380818F77808385898A60858B7A
:1003620087898A60878BE0E2F4E080818B7F8083DB
:0803720082898A60828B0895E4
:10037A00E0E4F1E0178280E3808380E09AE08287FC
:0A038A0093878281816082830895C9
:1003940088ED20E830E084BF2093600021E130E064
:0803A40084BF2093610008955D
:1003AC00EC010E9401020E940002CE010E94020296
:0603BC00CE010E94FE01CB
:1003C200E0E4F1E0108611868081816080830895E7
:0E03D2000E94CA010E94BD010E94A10108956F
:0C03E000E0E4F1E080818E7F80830895CE
:0C03EC00EE0FFF1F0590F491E02D099426
:0403F8000C94000061
:0403FC000E947200E9
:0204000008955D
:0204020008955B
:02040400089559
:020406000100F3
:020408000100F1
:00000001FF
