:100000000C943C000C944E000C944E000C94410156
:100010000C944E000C944E000C94F1000C944E0085
:100020000C944E000C944E000C944E000C944E0018
:100030000C944E000C94CA000C944E000C944E008C
:100040000C944E000C944E000C944E000C944E00F8
:100050000C944E000C944E000C944E000C944E00E8
:100060000C944E000C944E000C944E000C944E00D8
:100070000C944E000C944E0011241FBECFEFCDBF48
:10008000DFE3DEBF28E3A0E0B8E301C01D92A430A7
:10009000B207E1F70E94AE000C94D7020C94000066
:1000A00088ED90E084BF9093600084BF90936100DE
:1000B0000895E0E0F4E080818D7F80838189826013
:1000C000818BE0E2F4E080818861808384898068AC
:1000D000848B83E08093E4050895E0E0FAE083EF09
:1000E00091E086A397A389EF90E080A791A782A7CC
:1000F00093A783E38183808180830895E0E0FAE021
:1001000010A211A28081816080830895E0E0FAE06E
:1001100080818E7F80830895E0E4F1E081E0878331
:1001200020E034E1228733878283838380830895AC
:10013000E0E8FAE081818660818391E095838481A3
:10014000816084832FEF3FEF2487358783E08083AE
:10015000E0E8F1E080E8808B90AB08950E945000C9
:100160000E9459000E946D000E948C000E9498001D
:100170007894FFCFE0E9FAE01286138680818160EF
:1001800080830895E0E9FAE01286138680818E7FED
:10019000808308951F920F920FB60F9211242F9310
:1001A0003F934F935F936F937F938F939F93AF93FF
:1001B000BF93EF93FF9381E08093860A0E948600AD
:1001C000FF91EF91BF91AF919F918F917F916F912F
:1001D0005F914F913F912F910F900FBE0F901F9005
:1001E00018951F920F920FB60F9211242F933F93E1
:1001F0004F935F936F937F938F939F93AF93BF932F
:10020000CF93DF93EF93FF93C0919A0AD0919B0A0B
:100210000E94C200BE0190E080E00E94DC012BE061
:1002200034E244EF51E40E946A0128E23EE74CE0E8
:100230005DE30E946A0220E030E040E05FE30E945C
:100240006A0260930038709301388093023890936B
:100250000338E0E0F4E0818582608187FF91EF91CF
:10026000DF91CF91BF91AF919F918F917F916F91CE
:100270005F914F913F912F910F900FBE0F901F9064
:1002800018951F920F920FB60F9211242F933F9340
:100290004F935F936F937F938F939F93AF93BF938E
:1002A000EF93FF9381E0809343010E947E000E94C0
:1002B000BA00FF91EF91BF91AF919F918F917F9184
:1002C0006F915F914F913F912F910F900FBE0F90C3
:1002D0001F9018950E947E010C9430020E94290202
:1002E00058F00E94220240F029F45F3F29F00C945C
:1002F000190251110C9464020C941F020E944102D5
:1003000068F39923B1F3552391F3951B550BBB2744
:10031000AA2762177307840738F09F5F5F4F220F89
:10032000331F441FAA1FA9F335D00E2E3AF0E0E880
:1003300032D091505040E695001CCAF72BD0FE2FCA
:1003400029D0660F771F881FBB1F2617370748075E
:10035000AB07B0E809F0BB0B802DBF01FF27935816
:100360005F4F3AF09E3F510578F00C9419020C94BF
:1003700064025F3FE4F3983ED4F3869577956795E2
:10038000B795F7959F5FC9F7880F911D969587954B
:1003900097F90895E1E0660F771F881FBB1F62176A
:1003A00073078407BA0720F0621B730B840BBA0B28
:1003B000EE1F88F7E0950895E89409C097FB3EF496
:1003C00090958095709561957F4F8F4F9F4F9923A2
:1003D000A9F0F92F96E9BB279395F6958795779520
:1003E0006795B795F111F8CFFAF4BB0F11F460FFE0
:1003F0001BC06F5F7F4F8F4F9F4F16C0882311F038
:1004000096E911C0772321F09EE8872F762F05C04B
:10041000662371F096E8862F70E060E02AF09A95E6
:10042000660F771F881FDAF7880F9695879597F9DB
:10043000089597F99F6780E870E060E008959FEF66
:1004400080EC089500240A9416161706180609066B
:10045000089500240A94121613061406050608953A
:10046000092E0394000C11F4882352F0BB0F40F4C2
:10047000BF2B11F460FF04C06F5F7F4F8F4F9F4F02
:10048000089557FD9058440F551F59F05F3F71F084
:100490004795880F97FB991F61F09F3F79F08795EB
:1004A0000895121613061406551FF2CF4695F1DF74
:1004B00008C0161617061806991FF1CF8695710504
:1004C000610508940895E894BB2766277727CB0138
:1004D00097F908950E947D020C9430020E94220236
:1004E00038F00E94290220F0952311F00C94190293
:1004F0000C941F0211240C9464020E94410270F3B8
:10050000959FC1F3950F50E0551F629FF001729FB8
:10051000BB27F00DB11D639FAA27F00DB11DAA1FC7
:10052000649F6627B00DA11D661F829F2227B00D14
:10053000A11D621F739FB00DA11D621F839FA00D9F
:10054000611D221F749F3327A00D611D231F849FEF
:10055000600D211D822F762F6A2F11249F57504046
:100560009AF0F1F088234AF0EE0FFF1FBB1F661FC1
:10057000771F881F91505040A9F79E3F510580F08A
:100580000C9419020C9464025F3FE4F3983ED4F398
:10059000869577956795B795F795E7959F5FC1F72E
:1005A000FE2B880F911D9695879597F90895F894DD
:0205B000FFCF7B
:00000001FF
