:100000000C943C000C9446000C9446000C94460062
:100010000C9446000C9446000C9446000C94460048
:100020000C948C000C9446000C947D000C944600BB
:100030000C9446000C9446000C9446000C94460028
:100040000C9446000C9446000C9446000C94460018
:100050000C9446000C9446000C9446000C94460008
:100060000C9446000C9446000C9446000C944600F8
:100070000C9446000C94460011241FBECFEFCDBF58
:10008000DFE3DEBF0E9473000C949B000C94000021
:1000900088ED90E084BF9093600084BF90936100EE
:1000A0000895E0E2F4E080818861808380E8848BB9
:1000B00083E08093E4050895E0E0FAE083EF91E0C7
:1000C00086A397A389EF90E080A791A782A793A723
:1000D00083E3818381E080830895E0E0FAE080811A
:1000E0008160808308950E9448000E9451000E9410
:1000F0005C000E946D007894FFCF1F920F920FB6A4
:100100000F9211248F9380E180930B0A8F910F90AF
:100110000FBE0F901F9018951F920F920FB60F925F
:1001200011248F9381E080930B0A8F910F900FBE63
:0A0130000F901F901895F894FFCF70
:00000001FF
