:100000000C943C000C944E000C944E000C944E004A
:100010000C944E000C944E000C94F2000C944E0084
:100020000C944E000C944E000C944E000C944E0018
:100030000C944E000C94CB000C9465010C944E0073
:100040000C944E000C944E000C944E000C944E00F8
:100050000C944E000C944E000C944E000C944E00E8
:100060000C944E000C944E000C944E000C944E00D8
:100070000C944E000C944E0011241FBECFEFCDBF48
:10008000DFE3DEBF28E3A0E0B8E301C01D92A730A4
:10009000B207E1F70E94A1000C9441030C94000008
:1000A00088ED20E830E084BF2093600090E084BFBA
:1000B000909361000895E0E0F4E080818D7F80837B
:1000C00081898360818BE0E2F4E0808188618083B4
:1000D00083E08093E4050895E0E0FAE083EF91E0A7
:1000E00086A397A389EF90E080A791A782A793A703
:1000F00083E38183808180830895E0E0FAE010A2A9
:1001000011A28081816080830895E0E0FAE080811F
:100110008E7F80830895E0E8FAE0818186608183A4
:1001200091E095838481816084832FEF3FEF248762
:10013000358783E08083E0E8F1E080E8808B90AB56
:1001400008950E9450000E945B000E946C000E9473
:100150008B006BEB70E08FE60E9459017894FFCF23
:1001600081E080930438E0E9FAE01286138680810A
:100170008160808308958F3F09F008950E94B00048
:100180000E947D00FACF10920438E0E9FAE0808105
:100190008E7F808308951F920F920FB60F921124C5
:1001A0002F933F934F935F936F937F938F939F937F
:1001B000AF93BF93EF93FF9381E08093860A0E94F1
:1001C0008500FF91EF91BF91AF919F918F917F91AA
:1001D0006F915F914F913F912F910F900FBE0F90B4
:1001E0001F9018951F920F920FB60F9211242F9304
:1001F0003F934F935F936F937F938F939F93AF93AF
:10020000BF93CF93DF93EF93FF93809104388130B6
:10021000C1F0E0E0F4E0818582608187FF91EF9199
:10022000DF91CF91BF91AF919F918F917F916F910E
:100230005F914F913F912F910F900FBE0F901F90A4
:1002400018950E94C300C0919A0AD0919B0A2097EA
:1002500001F30E94C300BE0190E080E00E941D02F5
:1002600020E030E040E751E40E94AB0128E23EE7A5
:100270004CE05DE30E94B00220E030E040E05FE34C
:100280000E94B00260930038709301388093023866
:100290009093033820E030E040E85FE30E94AB0237
:1002A00018160CF0B6CFE0E0F4E08185826081871B
:1002B000B0CF6093053870930638880FE0EAF8E015
:1002C000848781EE8187789408951F920F920FB6EC
:1002D0000F9211242F933F934F935F936F937F93CC
:1002E0008F939F93AF93BF93EF93FF938091AB084E
:1002F00086FF0BC0E0EAF8E080E48387838580FF17
:1003000019C081E0838783E082878091AB088823CE
:10031000ACF0FF91EF91BF91AF919F918F917F9141
:100320006F915F914F913F912F910F900FBE0F9062
:100330001F90189582E08093AA08E7CF8091AD08BE
:10034000E0910538F0910638309709F0099580E87A
:100350008093AB08DECF0E94BF010C9471020E9413
:100360006A0258F00E94630240F029F45F3F29F0CE
:100370000C945A0251110C94A5020C9460020E9434
:10038000820268F39923B1F3552391F3951B550B22
:10039000BB27AA2762177307840738F09F5F5F4F58
:1003A000220F331F441FAA1FA9F335D00E2E3AF097
:1003B000E0E832D091505040E695001CCAF72BD0AF
:1003C000FE2F29D0660F771F881FBB1F2617370700
:1003D0004807AB07B0E809F0BB0B802DBF01FF2732
:1003E00093585F4F3AF09E3F510578F00C945A02B3
:1003F0000C94A5025F3FE4F3983ED4F3869577957D
:100400006795B795F7959F5FC9F7880F911D9695EA
:10041000879597F90895E1E0660F771F881FBB1F46
:10042000621773078407BA0720F0621B730B840BF3
:10043000BA0BEE1F88F7E0950895E89409C097FB82
:100440003EF490958095709561957F4F8F4F9F4FAB
:100450009923A9F0F92F96E9BB279395F6958795EF
:1004600077956795B795F111F8CFFAF4BB0F11F4B2
:1004700060FF1BC06F5F7F4F8F4F9F4F16C0882359
:1004800011F096E911C0772321F09EE8872F762F8F
:1004900005C0662371F096E8862F70E060E02AF0D0
:1004A0009A95660F771F881FDAF7880F96958795BC
:1004B00097F9089597F99F6780E870E060E00895E4
:1004C0009FEF80EC089500240A941616170618066C
:1004D0000906089500240A94121613061406050648
:1004E0000895092E0394000C11F4882352F0BB0FD9
:1004F00040F4BF2B11F460FF04C06F5F7F4F8F4F3C
:100500009F4F089557FD9058440F551F59F05F3F76
:1005100071F04795880F97FB991F61F09F3F79F025
:1005200087950895121613061406551FF2CF4695A7
:10053000F1DF08C0161617061806991FF1CF869529
:100540007105610508940895E894BB27662777270D
:10055000CB0197F908950E941D0308F48FEF0895C9
:100560000E94C3020C9471020E94630238F00E9440
:100570006A0220F0952311F00C945A020C94600248
:1005800011240C94A5020E94820270F3959FC1F37E
:10059000950F50E0551F629FF001729FBB27F00D31
:1005A000B11D639FAA27F00DB11DAA1F649F662786
:1005B000B00DA11D661F829F2227B00DA11D621FD5
:1005C000739FB00DA11D621F839FA00D611D221F8F
:1005D000749F3327A00D611D231F849F600D211D73
:1005E000822F762F6A2F11249F5750409AF0F1F0F6
:1005F00088234AF0EE0FFF1FBB1F661F771F881F5F
:1006000091505040A9F79E3F510580F00C945A023A
:100610000C94A5025F3FE4F3983ED4F3869577955A
:100620006795B795F795E7959F5FC1F7FE2B880F04
:10063000911D9695879597F90895990F0008550F84
:10064000AA0BE0E8FEEF16161706E807F907C0F058
:1006500012161306E407F50798F0621B730B840B60
:10066000950B39F40A2661F0232B242B252B21F43A
:1006700008950A2609F4A140A6958FEF811D811DDA
:060680000895F894FFCF7D
:00000001FF
