:100000000C943C000C944E000C944E000C944E004A
:100010000C944E000C944E000C944E000C944E0028
:100020000C944E000C944E000C944E000C944E0018
:100030000C944E000C94C1000C9411010C944E00D1
:100040000C944E000C944E000C944E000C944E00F8
:100050000C944E000C944E000C944E000C944E00E8
:100060000C94E8000C944E000C944E000C944E003E
:100070000C944E000C944E0011241FBECFEFCDBF48
:10008000DFE3DEBF28E3A0E0B8E301C01D92A230A9
:10009000B207E1F70E94A2000C9457010C940000F3
:1000A00088ED20E830E084BF2093600090E084BFBA
:1000B000909361000895E0E0F4E080818D7F80837B
:1000C00081898260818BA0E2B4E08C9188618C93FD
:1000D00054968C915497806854968C9383E08093C7
:1000E000E405808184608083E0E4F4E080818F7D9A
:1000F000808385898260858B0895E0E0FAE083EF54
:1001000091E086A397A389EF90E080A791A782A7AB
:1001100093A7818183638183808181608083089537
:10012000E0E0FAE081818061818380818160808369
:100130000895E0E0FAE081818F7E818380818E7F67
:10014000808308950E9450000E945B000E947D0001
:10015000E0E0F4E08581846085830E94900081EE78
:1001600094E00197F1F700C000000E9499009FE71A
:100170002AE186E0915020408040E1F700C0000075
:10018000ECCF1F920F920FB60F9211242F933F9333
:100190004F935F936F937F938F939F93AF93BF938F
:1001A000EF93FF930E94990081E08093860AFF916C
:1001B000EF91BF91AF919F918F917F916F915F91DF
:1001C0004F913F912F910F900FBE0F901F90189558
:1001D0001F920F920FB60F9211242F933F934F93BC
:1001E0005F936F937F938F939F93AF93BF93EF939F
:1001F000FF930E949000E0E4F4E0818580628187B3
:10020000FF91EF91BF91AF919F918F917F916F91EE
:100210005F914F913F912F910F900FBE0F901F90C4
:1002200018951F920F920FB60F9211242F933F93A0
:100230004F935F936F937F938F939F93AF93BF93EE
:10024000EF93FF938091AB0886FF0BC0E0EAF8E0E4
:1002500080E48387838580FF19C081E0838783E002
:1002600082878091AB088823ACF0FF91EF91BF911A
:10027000AF919F918F917F916F915F914F913F913E
:100280002F910F900FBE0F901F90189582E08093D2
:10029000AA08E7CF8091AD08E0910038F0910138CD
:1002A000309709F0099580E88093AB08DECFF89489
:0202B000FFCF7E
:00000001FF
