:100000000C943C000C944E000C944E000C949D00FB
:100010000C944E000C944E000C944E000C944E0028
:100020000C94E9000C944E000C944E000C944E007D
:100030000C944E000C944E000C9466010C944E00EF
:100040000C944E000C944E000C944E000C944E00F8
:100050000C944E000C944E000C944E000C944E00E8
:100060000C944E000C944E000C944E000C944E00D8
:100070000C944E000C944E0011241FBECFEFCDBF48
:10008000DFE3DEBF28E3A0E0B8E301C01D92A630A5
:10009000B207E1F70E9482000C94B4010C940000B6
:1000A00088ED90E084BF9093600021E130E084BF50
:1000B000209361000895E0E4F1E087818160878307
:1000C00080E094E08287938783818160838382814B
:1000D000816082838081816080830895E0E0FAE01E
:1000E0008FEF9FEF86A397A38285816082878181AE
:1000F0008183808180830895E0E2F4E08081806ED6
:10010000808308950E9450002FE78AE196E02150F5
:1001100080409040E1F700C000000E945B000E9418
:100120006E000E940A010E947C007894E0E2F4E0F4
:1001300090EE80E295838683FDCF1F920F920FB6DB
:100140000F9211242F933F934F935F936F937F935D
:100150008F939F93AF93BF93EF93FF9381E080932F
:100160004301E0E2F4E080EE858380E48683109230
:10017000013861E088E00E941B010E9437018093F2
:10018000013860E089E40E941B01809101388733C7
:10019000E0F08AEA0E9425010E944601E0E2F4E0D4
:1001A00080EE858380EC8683FF91EF91BF91AF91C4
:1001B0009F918F917F916F915F914F913F912F917F
:1001C0000F900FBE0F901F9018958FEF0E94250182
:1001D000E3CF1F920F920FB60F9211248F939F932C
:1001E000EF93FF93E0E0FAE091E0938780818E7FC8
:1001F000808390930038E0E2F4E080EE858380E82D
:100200008683FF91EF919F918F910F900FBE0F907A
:100210001F901895E0EAF8E08CE086838381836084
:10022000838384818860848381E085838381806C7B
:10023000838378940895880F682B6093A708E0EA79
:10024000F8E08581807CE9F308958093A808E0EACE
:10025000F8E0858186FFFDCF8091A5088C7031F094
:10026000E0EAF8E088E0848381E08583089584E013
:100270008093A408E0EAF8E085818823ECF7E0EABF
:10028000F8E08481836084838085089583E080938F
:10029000A40808958093AD08E0EAF8E083858823F8
:1002A000ECF78091AB0884FF05C0E0EAF8E08285B6
:1002B000826082870895E0EAF8E083858823ECF77E
:1002C000E0EAF8E084E08287858508951F920F9226
:1002D0000FB60F9211242F933F934F935F936F9319
:1002E0007F938F939F93AF93BF93EF93FF938091EF
:1002F000AB0886FF0BC0E0EAF8E080E483878385E3
:1003000080FF04C081E0838783E082878091AB080F
:1003100088238CF0FF91EF91BF91AF919F918F91C6
:100320007F916F915F914F913F912F910F900FBEF1
:100330000F901F9018958091AB0881FF0DC0E09140
:100340000238F091033809950E944A01E0EAF8E08A
:10035000838580688387DECF0E945B01E09104384B
:0C036000F09105380995F2CFF894FFCF1A
:00000001FF
